{
  "transactions": [
    {
      "hash": "0xe42b8b4a80ce8c4f9b063f7e1a3d9d835c4ffda88dc6430c2fb5c8304e8aca82",
      "transactionType": "CREATE",
      "contractName": "AttackerLowGas",
      "contractAddress": "0x316767af529F8AE5551219C302C10e35dB67C781",
      "function": null,
      "arguments": null,
      "transaction": {
        "type": "0x02",
        "from": "0xe5974ae86baf0b3fe1304c41b16ab0beca90cb42",
        "gas": "0x22139",
        "value": "0x0",
        "data": "0x608060405234801561001057600080fd5b5060fa8061001f6000396000f3fe60806040526004361060205760003560e01c8063d018db3e14602e57600080fd5b36602957600080fd5b600080fd5b603d60393660046096565b603f565b005b6000816001600160a01b03163460405160006040518083038185875af1925050503d8060008114608a576040519150601f19603f3d011682016040523d82523d6000602084013e608f565b606091505b5050505050565b60006020828403121560a757600080fd5b81356001600160a01b038116811460bd57600080fd5b939250505056fea26469706673582212209651855d86f2d54d9e91994060b372566ca57b521cbe0bd7fa0f4b20c8a9178264736f6c63430008130033",
        "nonce": "0x3c",
        "accessList": []
      },
      "additionalContracts": [],
      "isFixedGasLimit": false
    },
    {
      "hash": "0xfe7b2527c901199932b4513489f2c673b9dd44ad1cef32843748614bb9b53172",
      "transactionType": "CALL",
      "contractName": "AttackerLowGas",
      "contractAddress": "0x316767af529F8AE5551219C302C10e35dB67C781",
      "function": "attack(address)",
      "arguments": [
        "0x3049C00639E6dfC269ED1451764a046f7aE500c6"
      ],
      "transaction": {
        "type": "0x02",
        "from": "0xe5974ae86baf0b3fe1304c41b16ab0beca90cb42",
        "to": "0x316767af529f8ae5551219c302c10e35db67c781",
        "gas": "0x83b7",
        "value": "0x0",
        "data": "0xd018db3e0000000000000000000000003049c00639e6dfc269ed1451764a046f7ae500c6",
        "nonce": "0x3d",
        "accessList": []
      },
      "additionalContracts": [],
      "isFixedGasLimit": false
    }
  ],
  "receipts": [
    {
      "transactionHash": "0xe42b8b4a80ce8c4f9b063f7e1a3d9d835c4ffda88dc6430c2fb5c8304e8aca82",
      "transactionIndex": "0x2",
      "blockHash": "0xe47dd76598f74c29fd66299aab319091f992e2c03d1f1fac2b3fa4d563237ff5",
      "blockNumber": "0x3bc4e7",
      "from": "0xE5974Ae86Baf0B3FE1304c41B16AB0BEca90cb42",
      "to": null,
      "cumulativeGasUsed": "0x56b29",
      "gasUsed": "0x1a379",
      "contractAddress": "0x316767af529F8AE5551219C302C10e35dB67C781",
      "logs": [],
      "status": "0x1",
      "logsBloom": "0x00000000000000000000000000000000000000000000000000000000000000000000000000000000000000000000000000000000000000000000000000000000000000000000000000000000000000000000000000000000000000000000000000000000000000000000000000000000000000000000000000000000000000000000000000000000000000000000000000000000000000000000000000000000000000000000000000000000000000000000000000000000000000000000000000000000000000000000000000000000000000000000000000000000000000000000000000000000000000000000000000000000000000000000000000000000",
      "type": "0x2",
      "effectiveGasPrice": "0xb2d05e0b"
    },
    {
      "transactionHash": "0xfe7b2527c901199932b4513489f2c673b9dd44ad1cef32843748614bb9b53172",
      "transactionIndex": "0x3",
      "blockHash": "0xe47dd76598f74c29fd66299aab319091f992e2c03d1f1fac2b3fa4d563237ff5",
      "blockNumber": "0x3bc4e7",
      "from": "0xE5974Ae86Baf0B3FE1304c41B16AB0BEca90cb42",
      "to": "0x316767af529F8AE5551219C302C10e35dB67C781",
      "cumulativeGasUsed": "0x5ca86",
      "gasUsed": "0x5f5d",
      "contractAddress": null,
      "logs": [],
      "status": "0x1",
      "logsBloom": "0x00000000000000000000000000000000000000000000000000000000000000000000000000000000000000000000000000000000000000000000000000000000000000000000000000000000000000000000000000000000000000000000000000000000000000000000000000000000000000000000000000000000000000000000000000000000000000000000000000000000000000000000000000000000000000000000000000000000000000000000000000000000000000000000000000000000000000000000000000000000000000000000000000000000000000000000000000000000000000000000000000000000000000000000000000000000",
      "type": "0x2",
      "effectiveGasPrice": "0xb2d05e0b"
    }
  ],
  "libraries": [],
  "pending": [],
  "returns": {},
  "timestamp": 1689685816,
  "chain": 11155111,
  "multi": false,
  "commit": "ca42f8a"
}